:020000040800F2
:10000000385D0020C540000891AE00081BFE0008C6
:1000100093AE000897AE00089BAE000800000000F9
:100020000000000000000000000000009FAE00087B
:10003000A1AE000800000000A3FD0008DF82000858
:10004000DF400008C3AE0008DF400008DF400008C2
:10005000DF400008DF400008DF400008DF40000804
:10006000DF400008DF400008DF400008DF400008F4
:10007000DF400008DF400008DF400008DF400008E4
:10008000DF400008DF400008DF400008DF400008D4
:10009000DF400008DF400008DF400008DF400008C4
:1000A000DF400008DF400008DF400008DF400008B4
:1000B000DF400008DF400008DF400008DF400008A4
:1000C000DF400008DF400008DF400008DF40000894
:1000D000DF400008A3AE0008B5AE0008B7AE0008C8
:1000E000C1AE0008DF400008DF400008000000004B
:1000F0000000000000000000000000000000000000
:100100000000000000000000DF400008DF400008A1
:10011000DF400008DF400008DF400008DF40000843
:10012000DF400008DF400008DF400008DF40000833
:10013000DF40000859A80008DF400008DF40000841
:10014000DF400008DF400008DF400008B9AE0008CB
:1001500000F002F800F075F80AA090E8000C824464
:100160008344AAF10107DA4501D100F06AF8AFF241
:10017000090EBAE80F0013F0010F18BFFB1A43F085
:1001800001031847D06C0200F06C02000A444FF0E3
:10019000000C10F8013B13F0070408BF10F8014BE6
:1001A0001D1108BF10F8015B641E05D010F8016B2B
:1001B000641E01F8016BF9D113F0080F1EBF10F88F
:1001C000014BAD1C0C1B09D16D1E58BF01F801CBB2
:1001D000FAD505E014F8016B01F8016B6D1EF9D535
:1001E0009142D6D37047000000230024002500264A
:1001F000103A28BF78C1FBD8520728BF30C148BF8A
:100200000B607047642922F06587782922F09E8769
:10021000732923F0E482002070471FB523F0ADF866
:1002200023F0F4FD04000020002125F00FF8401C0D
:1002300060600020002124F0F3FFE0601FBD10B5D6
:1002400010BD23F0BEFD1146FFF7E7FF04F017F9DC
:1002500024F05CF803B4FFF7F2FF03BC24F008FBC2
:100260000B49D1F800C04A685CF8043B1068184498
:1002700042F8040B8C4528BFA1F1DC0C8A4228BF50
:10028000A1F1DC02C1F800C04A6020F000407047D4
:10029000D05600200CB500200190009092480068D4
:1002A00040F480309049086000BF8F48006800F437
:1002B000003000900198401C0190009818B90198F6
:1002C000B0F5A06FF1D18848006800F4003010B19B
:1002D0000120009001E000200090009801285CD1EE
:1002E0008248006840F010008049086008460068B5
:1002F00020F0030008600846006840F00200086033
:10030000794840687849486008464068486008462F
:10031000406840F4806048600846C06A74490840FC
:100320007149C8620846C06A724908436E49C8628A
:100330000846006840F08060086000BF6A480068B6
:1003400000F000600028F9D06748406820F47C1075
:10035000654948600846406840F4E810486008462F
:10036000006840F08070086000BF5F48006800F0DF
:1003700000700028F9D05C48406820F003005A491A
:1003800048600846406840F00200486000BF564898
:10039000406800F00C000828F9D10CBD10B5FFF73B
:1003A00079FF10BD10B55048006840F001004E497B
:1003B000086008464068504908404B494860084674
:1003C00000684E490840484908600846006820F423
:1003D000802008600846406820F4FE004860084617
:1003E000006820F0A05008604FF47F008860002073
:1003F000C862FFF7D3FF4FF000604149086010BDAD
:10040000F0B5002100200023002400220025002652
:10041000354F7F6807F00C0121B1042908D0082965
:100420004BD10BE0374FDFF8E0C0CCF800704AE06A
:10043000364FDFF8D4C0CCF8007044E02A4F7F6814
:1004400007F47010284F7F6807F48033800C0D2864
:1004500001D0801C00E0062033B92D4F4743DFF860
:10046000A8C0CCF8007027E01F4FFF6A07F4803463
:100470001D4FFF6A07F00F077A1C44B9234FB7FBE3
:10048000F2F74743DFF880C0CCF8007014E0164F55
:10049000FF6AC7F303177D1C134FFF6AC7F30327D7
:1004A000BE1C1A4FB7FBF5F77743B7FBF2F747438C
:1004B000DFF854C0CCF8007005E0124FDFF848C0F8
:1004C000CCF8007000BF00BF074F7F68C7F3031769
:1004D000DFF840C01CF807100B4F3F68CF40DFF833
:1004E00028C0CCF80070F0BD00100240002002408F
:1004F00000F0FEFF440601000000FFF0FFFFF6FEE3
:1005000008ED00E000127A000000002040787D0134
:1005100000093D0004000020F948006840F0010097
:10052000F749086008464068F6490840F4494860C1
:1005300008460068F4490840F14908600846006828
:1005400020F4802008600846406820F4FE004860DF
:100550000846006820F0A05008604FF47F008860D3
:100560000020C862704710B504462CB1B4F5803F36
:1005700002D0B4F5802F00D104E040F21111E3A0C5
:1005800003F036FEDE48006820F48030DC49086065
:100590000846006820F480200860B4F5803F03D04E
:1005A000B4F5802F0ED106E0D548006840F48030C5
:1005B000D349086007E0D248006840F4A020D04941
:1005C000086000E000BF00BF10BD2DE9F041044607
:1005D000002500260027212C17D0312C15D0392CCE
:1005E00013D0412C11D03B2C0FD03D2C0DD0612CC1
:1005F0000BD07A2C09D07B2C07D07C2C05D07D2CFD
:1006000003D07E2C01D07F2C00D104E040F2355184
:10061000BEA003F0EDFD6511012D02D1B8480668BA
:1006200006E0022D02D1B648066A01E0B448466AE7
:1006300004F01F050120A840304008B1012700E068
:1006400000273846BDE8F08138B50020009000242E
:10065000002500BF3120FFF7B8FF05460098401C79
:1006600000900098B0F5A06F01D0002DF2D031209D
:10067000FFF7ABFF08B1012400E00024204638BD9D
:1006800070B5044600251F2C00DC04E04FF4A9716E
:100690009EA003F0ADFD9A48056825F0F80545EAEF
:1006A000C405056070BD10B504460CB1012C00D125
:1006B00004E040F2651195A003F09AFDA2480460A1
:1006C00010BD70B505460C46002615B1B5F5803F46
:1006D00000D104E040F27F118CA003F089FDB4F555
:1006E000002F11D0B4F5402F0ED0B4F5801F0BD0E1
:1006F000B4F5A01F08D0B4F5C01F05D0B4F5E01FB5
:1007000002D0B4F5501F00D104E04FF4C0717FA0B7
:1007100003F06EFD7A48466826F4741645EA040034
:1007200006437748466070BD10B504460CB1012CF5
:1007300000D104E04FF4CA7174A003F059FD82485F
:10074000046610BD70B505460C46002615B1B5F51A
:10075000803F00D104E040F2AF116CA003F048FDEF
:10076000ECB1012C1BD0022C19D0032C17D0042C77
:1007700015D0052C13D0062C11D0072C0FD0082C27
:100780000DD0092C0BD00A2C09D00B2C07D00C2C27
:1007900005D00D2C03D00E2C01D00F2C00D104E07D
:1007A0004FF4D87159A003F023FD5548C66A674835
:1007B000064045EA040006435148C66270BD70B564
:1007C00004460025ECB1102C1BD0202C19D0302C65
:1007D00017D0402C15D0502C13D0602C11D0702C79
:1007E0000FD0802C0DD0902C0BD0A02C09D0B02C89
:1007F00007D0C02C05D0D02C03D0E02C01D0F02C99
:1008000000D104E040F2CB1140A003F0F1FC3C48E1
:10081000C56A25F0F0052543C56270BD70B5044674
:100820000025B4F5C06F17D0B4F5E06F14D0B4F55F
:10083000006F11D0B4F5106F0ED0B4F5206F0BD04F
:10084000B4F5306F08D0B4F5406F05D0B4F5606FE3
:1008500002D0B4F5706F00D104E04FF4F2712BA018
:1008600003F0C6FC2648C56A25F470652543C562B9
:1008700070BD10B504460CB1012C00D104E04FF45A
:10088000FE7122A003F0B4FC2F48846610BD70B541
:1008900004460025B4F5C04F17D0B4F5E04F14D08E
:1008A000B4F5004F11D0B4F5104F0ED0B4F5204F71
:1008B0000BD0B4F5304F08D0B4F5404F05D0B4F5A7
:1008C000604F02D0B4F5704F00D104E04FF40471D2
:1008D0000EA003F08DFC0A48C56A25F47045254337
:1008E000C56270BD10B504460CB1012C00D104E006
:1008F00040F2262105A003F07BFC1348046710BDDD
:10090000001002400000FFF0FFFFF6FE4C6962722B
:1009100061726965735C53544D3332463130785F90
:100920005374645065726970685F44726976657269
:100930005C7372635C73746D3332663130785F72EE
:1009400063632E630000000000004242F0FFFEFFE0
:1009500070B5044600251CB1012C01D0022C00D139
:1009600005E04FF40E71AFF25C0003F041FCF94872
:10097000456825F003052543456070BDF54840688E
:1009800000F00C00704770B5044600257CB1802C47
:100990000DD0902C0BD0A02C09D0B02C07D0C02C9F
:1009A00005D0D02C03D0E02C01D0F02C00D105E0F4
:1009B0004FF41971AFF2AC0003F01AFCE54845683A
:1009C00025F0F0052543456070BD70B5044600254F
:1009D0005CB1B4F5806F08D0B4F5A06F05D0B4F564
:1009E000C06F02D0B4F5E06F00D105E040F27E2187
:1009F000AFF2E80003F0FCFBD648456825F4E0655B
:100A00002543456070BD70B5044600255CB1B4F562
:100A1000806F08D0B4F5A06F05D0B4F5C06F02D0D8
:100A2000B4F5E06F00D105E04FF42671AFF2241069
:100A300003F0DEFBC748456825F4605545EAC40568
:100A4000456070BD70B504460D4604F0800008B9DD
:100A500004B105E040F2BF21AFF2501003F0C8FB33
:100A60000DB1012D00D105E04FF43071AFF26410EB
:100A700003F0BEFB2DB1B748407A2043B549487218
:100A800004E0B448407AA043B249487270BD10B542
:100A900004460CB1012C00D105E040F2ED21AFF28B
:100AA000941003F0A5FBAC48046010BD70B504467B
:100AB000002544B1B4F5804F05D0B4F5004F02D005
:100AC000B4F5404F00D105E040F20231AFF2C4105E
:100AD00003F08EFB9F48456825F44045254345605B
:100AE00070BD10B504460CB1012C00D105E040F2F8
:100AF0001B31AFF2E81003F07BFB9848046010BD97
:100B000010B504460CB1012C00D105E040F22E31A5
:100B1000AFF2082003F06CFB9048001D046010BD8C
:100B200010B504461CB1012C01D0042C00D105E005
:100B30004FF45071AFF22C2003F05AFB002085498E
:100B400020310870834981F82000012C02D0042C48
:100B50000AD104E001207F492031087005E005201A
:100B60007C492031087000E000BF00BF10BD10B507
:100B700004460CB1012C00D105E040F26131AFF226
:100B8000742003F035FB7648046010BD10B50446B0
:100B9000B4F5807F05D0B4F5007F02D0B4F5407F76
:100BA00000D105E040F27231AFF2A02003F020FB4B
:100BB0006848006A20436749086210BD10B50446C2
:100BC0000CB1012C00D105E04FF46071AFF2C420EC
:100BD00003F00EFB62484438046010BD2DE9F0417B
:100BE00000210022002500230026002400278C4637
:100BF000DFF86081D8F8048008F00C0121B10429E5
:100C000007D0082959D109E0DFF85881C0F80080E1
:100C100058E0DFF85481C0F8008053E0DFF83481F9
:100C2000D8F8048008F47012DFF82881D8F804801E
:100C300008F48035920C0D2A01D0921C00E00622A7
:100C400035B9DFF8288102FB08F8C0F8008033E0EE
:100C5000DFF80081D8F82C8008F48036DFF8F480C3
:100C6000D8F82C8008F00F0808F1010446B9DFF825
:100C7000F880B8FBF4F808FB02F8C0F800801BE02D
:100C8000DFF8D080D8F82C80C8F3031808F10107EA
:100C9000DFF8C080D8F82C80C8F3032808F1020CD4
:100CA000DFF8C480B8FBF7F808FB0CF8B8FBF4F8E1
:100CB00008FB02F8C0F8008004E0DFF8A880C0F864
:100CC000008000BF00BFDFF88C80D8F8048008F0F7
:100CD000F0010909DFF8988018F80130D0F8008099
:100CE00028FA03F8C0F80480DFF86880D8F8048098
:100CF00008F4E061090ADFF8788018F80130D0F8CC
:100D0000048028FA03F8C0F80880DFF84880D8F893
:100D1000048008F46051C90ADFF8548018F80130E3
:100D2000D0F8048028FA03F8C0F80C80DFF824809B
:100D3000D8F8048008F44041890BDFF8388018F8AF
:100D40000130D0F80C80B8FBF3F8C0F81080BDE893
:100D5000F081000000100240D8004242C405424227
:100D60008004424200127A0040787D0100093D0073
:100D7000140000202400002070B504460D46A94848
:100D8000204008B904B105E040F22B41AFF28440A5
:100D900003F02EFA0DB1012D00D105E040F22C41F7
:100DA000AFF2984003F024FA2DB19F4840692043E8
:100DB0009D49486104E09C484069A0439A494861C4
:100DC00070BD70B504460D469848204008B904B17E
:100DD00005E040F24A41AFF2CC4003F009FA0DB110
:100DE000012D00D105E040F24B41AFF2E04003F0AD
:100DF000FFF92DB18C48806920438B49886104E05C
:100E000089488069A0438849886170BD70B50446EF
:100E10000D468748204008B904B105E040F2694119
:100E2000AFF2185003F0E4F90DB1012D00D105E047
:100E300040F26A41AFF22C5003F0DAF92DB17A4852
:100E4000C06920437849C86104E07748C069A0437D
:100E50007549C86170BD70B504460D4624F4A040C4
:100E600008B904B105E040F28441AFF2605003F0EC
:100E7000BFF90DB1012D00D105E040F28541AFF27F
:100E8000745003F0B5F92DB16748806A2043664974
:100E9000886204E06448806AA0436349886270BD48
:100EA00070B504460D466148204008B904B105E01C
:100EB00040F2A441AFF2AC5003F09AF90DB1012D0C
:100EC00000D105E040F2A541AFF2C05003F090F927
:100ED0002DB15548C06820435349C86004E05248CA
:100EE000C068A0435049C86070BD70B504460D4647
:100EF0004F48204008B904B105E040F2C341AFF2C9
:100F0000F45003F075F90DB1012D00D105E040F268
:100F1000C441AFF2086003F06BF92DB1424800699B
:100F200020434149086104E03F480069A0433E492D
:100F3000086170BD10B504460CB1012C00D105E06C
:100F40004FF49B61AFF23C6003F052F93948046002
:100F500010BD10B504460CB1012C00D105E040F2E3
:100F6000E541AFF2586003F043F93348C46410BD63
:100F700010B504467CB1052C0DD0042C0BD0062CEA
:100F800009D0072C07D0082C05D0092C03D00A2C37
:100F900001D00B2C00D105E040F20551AFF2946076
:100FA00003F026F900214FF0201001F089FA1E48C5
:100FB000C47110BD1C48406A40F080701A494862F4
:100FC000704770B504460025012C0DD0022C0BD0C3
:100FD000042C09D0082C07D0102C05D0802C03D06D
:100FE000202C01D0402C00D105E040F27F51AFF21F
:100FF000E46003F0FDF80C488068204008B101254A
:1010000000E00025284670BD10B5044604B105E097
:1010100040F2AC51AFF20C7003F0EAF8024884726F
:1010200010BD0000A82FFEFF001002400200C0FF0C
:1010300000360181400442420000424210B50121C5
:101040000807FFF752FF00214FF08050FFF74DFFD8
:1010500010BD10B504460CB1012C00D103E07F2176
:1010600055A003F0C5F86348046210BD10B50446EE
:101070000CB1012C00D103E08C214FA003F0B8F893
:101080005C48046110BD70B5044600256CB1202C8D
:101090000BD0402C09D0602C07D0802C05D0A02C80
:1010A00003D0C02C01D0E02C00D103E0A22142A04B
:1010B00003F09EF85048056825F0E00525430560DB
:1010C00070BD10B504460CB1012C00D103E0B52170
:1010D00039A003F08DF84748A030046010BD70B50A
:1010E00004460D4600260CB1012C00D103E0C921B5
:1010F00031A003F07DF8012D01D0022D00D103E0D5
:10110000CA212DA003F074F83B48066826F00306B8
:10111000264306603948006840F0040037490860FB
:10112000012D01D130BF00E020BF3448006820F01D
:1011300004003249086070BD2F48006840F0040088
:101140002D4908600846006840F0020008602B48FE
:10115000006840F004002949086000BF00BF30BFAC
:10116000704770B504460025012C03D0022C01D035
:10117000042C00D104E040F209110FA003F038F86C
:101180001D484068204008B1012500E000252846A0
:1011900070BD10B50446012C01D0022C00D104E032
:1011A0004FF4917104A003F023F81348006840EA5B
:1011B00084001149086010BD4C69627261726965F2
:1011C000735C53544D3332463130785F53746450FE
:1011D00065726970685F4472697665725C73726388
:1011E0005C73746D3332663130785F7077722E6362
:1011F0000000000000000E420070004010ED00E012
:101200000020A7490860091D0860091D0860091D24
:101210000860A448A24914310860704770B50446BC
:101220000025207910B12079042800D103E06A213B
:101230009DA002F0DDFF6079082805D060790C28B8
:1012400002D06079102800D103E06B2196A002F053
:10125000CFFF20686FF3130010B9206800B103E0DE
:101260006C2191A002F0C4FFA07910B1A0790128EF
:1012700000D103E06D218CA002F0BAFF884DA07967
:1012800090B3284600682168884329460860081DF5
:10129000006821688843291D086020790544286872
:1012A0002168084328607E48083000682168884328
:1012B0007B4908310860081D006821688843784927
:1012C0000C310860607910280FD1081F0068216870
:1012D0000843734908310860081D00682168084305
:1012E0006F490C3108600EE007E06D4D60790544F0
:1012F000286821680843286005E0207905442868AB
:1013000021688843286070BD0021016001710C21B3
:10131000417100218171704710B50446200D000510
:1013200008B904B103E0AE215FA002F061FF5C48A0
:101330001030006820435A491031086010BD70B564
:1013400004460025012C31D0022C2FD0042C2DD0A6
:10135000082C2BD0102C29D0202C27D0402C25D085
:10136000802C23D0B4F5807F20D0B4F5007F1DD031
:10137000B4F5806F1AD0B4F5006F17D0B4F5805F64
:1013800014D0B4F5005F11D0B4F5804F0ED0B4F591
:10139000004F0BD0B4F5803F08D0B4F5003F05D026
:1013A000B4F5802F02D0B4F5002F00D103E0BE21A8
:1013B0003DA002F01DFF3A4814300068204008B1FB
:1013C000012500E00025284670BD10B50446200D1B
:1013D000000508B904B103E0D42133A002F008FFEE
:1013E0002F481430046010BD70B504460025002657
:1013F000012C31D0022C2FD0042C2DD0082C2BD036
:10140000102C29D0202C27D0402C25D0802C23D064
:10141000B4F5807F20D0B4F5007F1DD0B4F5806F87
:101420001AD0B4F5006F17D0B4F5805F14D0B4F5BE
:10143000005F11D0B4F5804F0ED0B4F5004F0BD043
:10144000B4F5803F08D0B4F5003F05D0B4F5802F47
:1014500002D0B4F5002F00D103E0E52112A002F084
:10146000C7FE0F48006800EA04060D481430006803
:10147000204010B10EB1012500E00025284670BDC6
:1014800010B50446200D000508B904B103E0FC21A5
:1014900005A002F0ADFE02481430046010BD00004B
:1014A00000040140FFFF0F004C69627261726965C0
:1014B000735C53544D3332463130785F537464500B
:1014C00065726970685F4472697665725C73726395
:1014D0005C73746D3332663130785F657874692E71
:1014E0006300000010B5044645F25550844200D018
:1014F00004B903E05F2124A002F07AFE31480460C1
:1015000010BD10B504465CB1012C09D0022C07D0E7
:10151000032C05D0042C03D0052C01D0062C00D1BF
:1015200003E0732118A002F063FE2648446010BD5A
:1015300010B50446B4F5805F00DA03E0802112A004
:1015400002F056FE1F48846010BD4AF6AA201D49CD
:10155000086070474CF6CC401A490860704770B577
:1015600004460025012C01D0022C00D103E0A52166
:1015700005A002F03DFE1348C068204008B10125D7
:1015800000E00025284670BD4C6962726172696591
:10159000735C53544D3332463130785F537464502A
:1015A00065726970685F4472697665725C737263B4
:1015B0005C73746D3332663130785F697764672E9F
:1015C000630000000030004070B5044600251CB1E7
:1015D000012C01D0022C00D104E040F20311F1A053
:1015E00002F006FEFE48056805F038052543056053
:1015F00070BD10B50446082C00D004B904E04FF4C7
:101600008E71E8A002F0F4FDF548006820F00800B3
:10161000F3490860084600682043086010BD10B513
:101620000446102C00D004B904E040F22F11DDA0D4
:1016300002F0DEFDEA48006820F01000E84908608A
:10164000084600682043086010BDE648E449486049
:10165000E54848607047E348E1494860E24848602F
:101660007047DF48006940F08000DD49086170473D
:10167000DB48006940F08000D949086170470420C8
:10168000D749C96801F0010109B101200EE0D44930
:10169000C96801F0040109B1022007E0D049C96816
:1016A00001F0100109B1032000E00420704700B5EB
:1016B00002460423FFF7E3FF034603E0FFF7DFFFE3
:1016C0000346521E012B01D1002AF7D102B905238E
:1016D000184600BD70B504460425B4F1006F03D36D
:1016E000C248844200D204E040F2A711ADA002F04B
:1016F0007FFD4FF43020FFF7DAFF0546042D17D1A8
:10170000B748006940F00200B549086108464461E5
:10171000006940F0400008614FF43020FFF7C7FF38
:101720000546AF48006941F6FD710840AC490861C3
:10173000284670BD10B504244FF43020FFF7B7FFE2
:101740000446042C16D1A648006940F00400A449C0
:1017500008610846006940F0400008614FF43020FD
:10176000FFF7A5FF04469E48006941F6FB7108405B
:101770009B490861204610BD00B502460423FFF7CF
:101780007EFF034603E0FFF77AFF0346521E012B5C
:1017900001D1002AF7D102B90523184600BD10B5C2
:1017A00004244FF43020FFF7E7FF0446042C16D141
:1017B0008B48006940F004008949086108460069C7
:1017C00040F0400008614FF43020FFF7D5FF044699
:1017D0008348006941F6FB71084081490861204651
:1017E00010BD00207E49C96901F0020109B1012044
:1017F00000E00020704730B5A5250424FFF7F1FF75
:1018000000B100254FF43020FFF751FF0446042CAF
:101810003AD1744872498860734888600846006904
:1018200040F0200008610846006940F0400008616F
:101830004FF43020FFF73BFF0446042C1BD16848CF
:10184000006941F6DF710840654908610846006992
:1018500040F01000086166480580E002FFF727FFAE
:101860000446052C10D05E48006941F6EF7108402F
:101870005B49086108E0052C06D05948006941F62B
:10188000EF71084056490861204630BDF8B504465E
:101890000D46042600200090B4F1006F03D3534896
:1018A000844200D204E040F2AF213EA002F0A0FC4E
:1018B0004FF40050FFF7FBFE0646042E24D14848A3
:1018C000006940F00100464908612580F002FFF7F9
:1018D000EEFE0646042E10D1A01C0090280C0099A4
:1018E0000880F002FFF7E3FE06463D48006941F636
:1018F000FE7108403A49086106E03948006941F63E
:10190000FE710840364908613046F8BD70B504469E
:101910000D460426B4F1006F03D33448844200D24C
:1019200004E040F25E311FA002F062FC4FF4005070
:10193000FFF7BDFE0646042E11D12948006940F08C
:101940000100274908612580F002FFF7B0FE064636
:101950002348006941F6FE7108402149086130467C
:1019600070BD70B504460E4604252148001D844212
:1019700002D0801C844200D104E040F2A53109A0CD
:1019800002F036FC4FF40050FFF791FE0546042D9F
:1019900041D114481249886013488860084600699C
:1019A00028E000004C69627261726965735C53548F
:1019B0004D3332463130785F5374645065726970CC
:1019C000685F4472697665725C7372635C73746D90
:1019D0003332663130785F666C6173682E63000065
:1019E0000020024023016745AB89EFCDFFFF0F08C0
:1019F00000F8FF1F40F0100008612680E802FFF7A2
:101A000056FE0546052D06D0D048006941F6EF7117
:101A10000840CE490861284670BD2DE9F0470446CC
:101A20004FF6FF763746B046B146042504B105E0CF
:101A300040F2D631AFF2940002F0DAFBE443E6B2B2
:101A4000C4F30727C4F307484FEA14694FF4005062
:101A5000FFF72DFE0546042D3FD1BD48BB498860E8
:101A6000BC4888600846006940F010000861FF2EFD
:101A700005D0B9480680E802FFF719FE0546042D97
:101A800008D1FF2F06D0B448801C0780E802FFF77A
:101A90000EFE0546042D0AD1B8F1FF0F07D0AE485F
:101AA000001DA0F80080E802FFF701FE0546042DA6
:101AB0000AD1B9F1FF0F07D0A748801DA0F8009008
:101AC000E802FFF7F4FD0546052D06D09F480069A2
:101AD00041F6EF7108409D4908612846BDE8F0874E
:101AE00070B5054604240DB1012D00D105E040F28A
:101AF0001D41AFF2501002F07BFB4FF43020FFF796
:101B0000D6FD0446042C43D1914890498860914801
:101B100088600846006940F02000086108460069B6
:101B200040F0400008614FF43020FFF7C0FD04464C
:101B3000042C24D18548006941F6DF7108408349AF
:101B400008610846006940F01000086125B10020D6
:101B500081490839088003E0A5207F4908390880B9
:101B60004FF43020FFF7A3FD0446052C10D0774832
:101B7000006941F6EF7108407449086108E0052CDE
:101B800006D07248006941F6DF7108406F4908616C
:101B9000204670BD2DE9F04104460D461646042747
:101BA000012C00D004B905E040F26341AFF20C20F3
:101BB00002F01EFB022D00D005B905E040F26441A1
:101BC000AFF2202002F014FB042E00D006B905E08D
:101BD00040F26541AFF2342002F00AFB5C485B49F9
:101BE00088605C4888604FF40050FFF760FD07464E
:101BF000042F19D15548006940F01000534908617D
:101C000046F0F800284320435349891F0880F80212
:101C1000FFF74DFD0746052F06D04C48006941F6F9
:101C2000EF710840494908613846BDE8F0814748EE
:101C3000C069800870474548006A704700204349E2
:101C4000096801F0200109B1012000E0002070477F
:101C500070B504460D4624F4A05008B904B105E05F
:101C600040F22D51AFF2C42002F0C2FA0DB1012DA5
:101C700000D105E040F22E51AFF2D82002F0B8FAC0
:101C80002DB13248006920433049086104E02F48F3
:101C90000069A0432D49086170BD70B50446002558
:101CA000012C0FD0202C0DD0042C0BD0102C09D0DF
:101CB000012C07D0202C05D0042C03D0102C01D0EF
:101CC000012C00D105E040F27A51AFF2283002F049
:101CD0008FFA012C08D11D48C06900F0010008B13D
:101CE000012508E0002506E01848C068204008B13A
:101CF000012500E00025284670BD10B5044624F0FB
:101D0000350008B904B105E040F2B651AFF26C30CD
:101D100002F06EFA0D48C46010BD04200B49C9687A
:101D200001F0010109B101200EE00849C96801F084
:101D3000040109B1022007E00449C96801F010015B
:101D400009B1032000E00420704700000020024099
:101D500023016745AB89EFCD08F8FF1F10B5044696
:101D6000FC48844211D0FC4884420ED0FB48844297
:101D70000BD0FB48844208D0FA48844205D0FA4888
:101D8000844202D0F948844200D103E06F21F8A0D8
:101D900002F02EFAEF48844208D101210420FFF717
:101DA0007FF800210420FFF77BF846E0EA488442F0
:101DB00008D101210820FFF773F800210820FFF760
:101DC0006FF83AE0E548844208D101211020FFF77E
:101DD00067F800211020FFF763F82EE0E048844206
:101DE00008D101212020FFF75BF800212020FFF718
:101DF00057F822E0DB48844208D101214020FFF758
:101E00004FF800214020FFF74BF816E0D6488442F7
:101E100008D101218020FFF743F800218020FFF73F
:101E20003FF80AE0D148844207D101218015FFF72D
:101E300037F80021A015FFF733F810BD10B50121C8
:101E40000846FFF72DF800210120FFF729F810BD03
:101E50002DE9F05F05460C464FF00009CA46002602
:101E60000027B046B346BB48854211D0BA488542E8
:101E70000ED0BA4885420BD0B948854208D0B9483F
:101E8000854205D0B848854202D0B848854200D185
:101E900003E0B221B6A002F0ABF9E078A0B1E0789F
:101EA000042811D0E07828280ED0E07848280BD0FC
:101EB000E078142808D0E078102805D0E0781C28B5
:101EC00002D0E078182800D103E0B321A8A002F0E6
:101ED0008FF9002010B9208800B103E0B421A4A03C
:101EE00002F086F9E07800F00F09E07800F01000C9
:101EF00080B1A078012805D0A078022802D0A0786F
:101F0000032800D103E0BB2199A002F071F9A07869
:101F100040EA0909207838B3D5F8008000261FE090
:101F2000012000FA06F7208800EA070ABA4516D110
:101F3000B7000F2000FA07FB28EA0B0809FA07F0A0
:101F400040EA0808E078282803D10120B040686101
:101F500005E0E078482802D10120B0402861761CD5
:101F6000082EDDD3C5F800802088FF282BDDD5F8AA
:101F70000480002623E006F10800012101FA00F7A1
:101F8000208800EA070ABA4518D1B7000F2000FAE6
:101F900007FB28EA0B0809FA07F040EA0808E0788E
:101FA000282803D106F1080081406961E0784828BB
:101FB00004D106F10800012181402961761C082E18
:101FC000D9D3C5F80480BDE8F09F4FF6FF710180BA
:101FD000022181700421C170704770B505460C461E
:101FE00000265C48854211D05B4885420ED05B4894
:101FF00085420BD05A48854208D05A48854205D0C0
:102000005948854202D05948854200D104E04FF436
:102010008F7157A002F0ECF8012C25D0022C23D0B0
:10202000042C21D0082C1FD0102C1DD0202C1BD00C
:10203000402C19D0802C17D0B4F5807F14D0B4F583
:10204000007F11D0B4F5806F0ED0B4F5006F0BD0C7
:10205000B4F5805F08D0B4F5005F05D0B4F5804FCB
:1020600002D0B4F5004F00D104E040F21F1140A0AF
:1020700002F0BEF8A868204008B1012600E0002662
:10208000304670BD10B504463248844211D0324803
:1020900084420ED0314884420BD03148844208D06B
:1020A0003048844205D03048844202D02F488442D0
:1020B00000D104E04FF49A712DA002F099F8A068C5
:1020C00080B210BD70B505460C46002621488542F9
:1020D00011D0214885420ED0204885420BD020489F
:1020E000854208D01F48854205D01F48854202D04E
:1020F0001E48854200D104E04FF4A2711CA002F0FA
:1021000077F8012C25D0022C23D0042C21D0082CC8
:102110001FD0102C1DD0202C1BD0402C19D0802C6F
:1021200017D0B4F5807F14D0B4F5007F11D0B4F58A
:10213000806F0ED0B4F5006F0BD0B4F5805F08D07F
:10214000B4F5005F05D0B4F5804F02D0B4F5004F70
:102150002CD131E000080140000C0140001001408A
:102160000014014000180140001C01400020014003
:102170004C69627261726965735C53544D333246C7
:102180003130785F5374645065726970685F44726F
:10219000697665725C7372635C73746D3332663139
:1021A00030785F6770696F2E6300000040F2451160
:1021B000AFF2440002F01CF8E868204008B10126A4
:1021C00000E00026304670BD10B50446FE4884424B
:1021D00011D0FE4884420ED0FD4884420BD0FD4809
:1021E000844208D0FC48844205D0FC48844202D096
:1021F000FB48844200D105E04FF4AD71AFF290008E
:1022000001F0F6FFE06880B210BD70B504460D46DF
:10221000ED48844211D0ED4884420ED0EC4884420F
:102220000BD0EC48844208D0EB48844205D0EB4800
:10223000844202D0EA48844200D105E040F26911AC
:10224000AFF2D40001F0D4FF002008B905B105E0D9
:102250004FF4B571AFF2E80001F0CAFF256170BD1F
:1022600070B504460D46D848844211D0D748844200
:102270000ED0D74884420BD0D648844208D0D648E6
:10228000844205D0D548844202D0D548844200D14A
:1022900005E040F27911AFF2281001F0A9FF00200B
:1022A00008B905B105E04FF4BD71AFF23C1001F083
:1022B0009FFF656170BD70B505460C461646C24865
:1022C000854211D0C14885420ED0C14885420BD00D
:1022D000C048854208D0C048854205D0BF488542E5
:1022E00002D0BF48854200D105E040F28D11AFF227
:1022F000801001F07DFF012C25D0022C23D0042C6E
:1023000021D0082C1FD0102C1DD0202C1BD0402CED
:1023100019D0802C17D0B4F5807F14D0B4F5007F8D
:1023200011D0B4F5806F0ED0B4F5006F0BD0B4F5BA
:10233000805F08D0B4F5005F05D0B4F5804F02D0BF
:10234000B4F5004F00D105E04FF4C771AFF2E010D3
:1023500001F04EFF0EB1012E00D105E040F28F11C9
:10236000AFF2F41001F044FF0EB12C6100E06C619B
:1023700070BD70B504460D469348844211D0934811
:1023800084420ED0924884420BD09248844208D0B6
:102390009148844205D09148844202D090488442BA
:1023A00000D105E04FF4D271AFF23C2001F020FFE4
:1023B000E56070BD70B504460D464FF48036824826
:1023C000844211D0814884420ED0814884420BD08F
:1023D0008048844208D08048844205D07F488442A7
:1023E00002D07F48844200D105E040F2B511AFF23F
:1023F000802001F0FDFE002008B905B105E04FF492
:10240000DB71AFF2942001F0F3FE2E43A661A561CB
:10241000A661A669A66970BD70B505460C46002682
:102420003DB1012D05D0022D03D0032D01D0042D87
:1024300000D105E04FF4E971AFF2CC2001F0D8FEF5
:10244000ECB1012C1BD0022C19D0032C17D0042C7A
:1024500015D0052C13D0062C11D0072C0FD0082C2A
:102460000DD0092C0BD00A2C09D00B2C07D00C2C2A
:1024700005D00D2C03D00E2C01D00F2C00D105E07F
:1024800040F2D311AFF2183001F0B2FE55480668A1
:102490004FF68070064046EA05162643514806600E
:1024A00070BD10B504460CB1012C00D105E04FF40D
:1024B000F371AFF2443001F09BFE4B48C46110BD94
:1024C0002DE9F04704460E460027B8460025A946E8
:1024D000012C77D0022C75D0042C73D0082C71D02D
:1024E000424884426ED04148203084426AD04048FD
:1024F000844267D03E488030844263D03D48844265
:1025000060D03D4884425DD03C4884425AD03C482B
:10251000844257D03B48844254D0B4F5805F51D0B8
:10252000B4F5EA1F4ED0B4F5EB1F4BD0B4F5004F15
:1025300048D03548844245D0401C844242D0801C5B
:1025400084427FD0001D84427CD02F480F308442CB
:1025500078D0B4F1201F75D04FEAF030844271D0AA
:102560002A4884426ED02A4884426BD0294884424B
:1025700068D02948844265D02848844262D0B4F5A6
:10258000011F5FD0264884425CD0401C844259D051
:10259000801C844256D0001D844253D020480F3006
:1025A00084424FD01E481F3084424BD01C483F30DD
:1025B000844247D01A487F30844243D01848FF30C5
:1025C00084422FE03EE0000000080140000C014082
:1025D000001001400014014000180140001C01409F
:1025E00000200140000001400000204210001400C3
:1025F0004000160000011800000218000003180037
:1026000000081A00000C1A00010020000001300030
:1026100000023000000430000011200000202000E3
:10262000010000800ED0664884420BD06548844289
:1026300008D06548844205D06448844202D064488A
:10264000844200D105E040F22A21AFF2DC4001F0E3
:10265000CFFD0EB1012E00D105E040F22B21AFF2EB
:10266000F04001F0C5FD04F00040B0F1004F02D190
:102670005848C56901E057484568C4F30349A7B203
:1026800004F44010B0F5401F08D125F070655148A2
:10269000406820F070604F49486013E004F48010F7
:1026A000B0F5801F07D1032000FA09F825EA0805D4
:1026B00045F0706506E0600D000107FA00F0854303
:1026C00045F0706526B1600D010107FA01F0054380
:1026D00004F00040B0F1004F02D13E48C56101E076
:1026E0003C484560BDE8F08770B505460C460026BD
:1026F0005DB1012D09D0022D07D0032D05D0042D89
:1027000003D0052D01D0062D00D105E040F2652152
:10271000AFF2A45001F06CFDECB1012C1BD0022CE7
:1027200019D0032C17D0042C15D0052C13D0062C4F
:1027300011D0072C0FD0082C0DD0092C0BD00A2C4F
:1027400009D00B2C07D00C2C05D00D2C03D00E2C4F
:1027500001D00F2C00D105E040F26621AFF2F0501D
:1027600001F046FDA007010F0F2000FA01F61948FD
:102770000830A11050F82100B04316490831A210CA
:1027800041F822000846A11050F82100A107090FC6
:1027900005FA01F108430F490831A21041F822005F
:1027A00070BD10B504460CB1012C00D105E04FF40A
:1027B0001E71AFF2446001F01BFD0748046010BDBC
:1027C00000020080000400800008008000100080EB
:1027D0000020008000000140DC00204210B50446CB
:1027E000FE4884420BD0FE48844208D0FD48844213
:1027F00005D0FD48844202D0FC48844200D103E069
:102800008521FBA001F0F4FCF448844209D10121A8
:102810008803FEF745FB00214FF48040FEF740FBA4
:1028200032E0EF48844209D101214804FEF75DFB04
:1028300000214FF40030FEF758FB25E0E9488442C0
:1028400009D101218804FEF750FB00214FF48020BC
:10285000FEF74BFB18E0E448844209D10121C8048B
:10286000FEF743FB00214FF40020FEF73EFB0BE098
:10287000DE48844208D101210805FEF736FB00211D
:102880004FF48010FEF731FB10BD2DE9F04786B004
:1028900005460C460026B24600BFB1460027CF4889
:1028A00085420BD0CE48854208D0CE48854205D01F
:1028B000CD48854202D0CD48854200D103E0B82101
:1028C000CBA001F095FC206820B1D849206888424F
:1028D00000D203E0B921C6A001F08AFCA08818B19B
:1028E000A088B0F5805F00D103E0BA21C0A001F05C
:1028F0007FFCE08858B1E088B0F5805F07D0E088C1
:10290000B0F5005F03D0E088B0F5405F00D103E090
:10291000BB21B7A001F06CFC208938B12089B0F54B
:10292000806F03D02089B0F5C06F00D103E0BC21D7
:10293000AFA001F05DFC60894FF6F371084010B95B
:10294000608900B103E0BD21A9A001F051FCA0897C
:1029500058B1A089B0F5807F07D0A089B0F5007F7D
:1029600003D0A089B0F5407F00D103E0BE21A0A034
:1029700001F03EFCA08968B19848854205D098488E
:10298000854202D09748854200D103E0C22198A039
:1029900001F02EFC2F462E8A4CF6FF700640E08890
:1029A00006432E82AE894EF6F3100640A088218998
:1029B0000843618908430643AE81AE8A4FF6FF4063
:1029C0000640A0890643AE8201A8FEF707F98348B6
:1029D000874202D1DDF810A001E0DDF80CA0A88943
:1029E00000F4004040B10AEBCA0000EB0A10216875
:1029F0004900B0FBF1F807E00AEBCA0000EB0A104F
:102A000021688900B0FBF1F86420B8FBF0F0060102
:102A10003009642101FB1089A88900F4004040B10D
:102A2000322000EBC900B0FBF1F000F007000643D4
:102A300008E0322000EB09106421B0FBF1F000F057
:102A40000F0006432E8106B0BDE8F0874FF4165103
:102A5000016000218180C18001810C214181002120
:102A60008181704770B505460C4600265B4885425B
:102A700005D05B48854202D05A48854200D104E027
:102A80004FF499715AA001F0B3FB208818B1208847
:102A9000B0F5006F00D104E040F2331154A001F012
:102AA000A7FB608818B16088B0F5806F00D104E0A2
:102AB0004FF49A714EA001F09BFBA08818B1A0883A
:102AC000B0F5007F00D104E040F2351148A001F0DC
:102AD0008FFBE08818B1E088B0F5807F00D104E07A
:102AE0004FF49B7142A001F083FB2E8A4FF2FF004E
:102AF0000640208861880843A1880843E18808438C
:102B000006432E8270BD0021018041808180C180FA
:102B1000704770B504460D46304884420BD03048AB
:102B2000844208D02F48844205D02F48844202D0E6
:102B30002E48844200D104E04FF4B1712CA001F082
:102B400057FB0DB1012D00D104E040F2631128A024
:102B500001F04EFB25B1A08940F40050A08104E0B3
:102B6000A0894DF6FF710840A08170BD2DE9F047A6
:102B700005460C4617464FF00008C246C1460026DF
:102B8000164885420BD01648854208D01548854224
:102B900005D01548854202D01448854200D104E092
:102BA00040F2891112A001F023FB282C44D040F2FE
:102BB0002770844240D040F2266084423CD040F2EC
:102BC0002550844238D040F22440844234D040F62C
:102BD0004600844230D040F66A1029E000380140B7
:102BE0000044004000480040004C004000500040BD
:102BF0004C69627261726965735C53544D3332463D
:102C00003130785F5374645065726970685F4472E4
:102C1000697665725C7372635C73746D33326631AE
:102C200030785F75736172742E63000021AA4400CE
:102C3000844201D0602C00D105E04FF4C571AFF2A1
:102C4000500001F0D5FA0FB1012F00D105E040F29C
:102C50008B11AFF2640001F0CBFA40F66A108442A7
:102C60000FD1F948854205D0F848854202D0F8488E
:102C7000854200D105E040F28F11AFF28C0001F0E7
:102C8000B7FA2E46C4F3421804F01F0A012000FAD6
:102C90000AF9B8F1010F01D10C3605E0B8F1020FC5
:102CA00001D1103600E0143627B1306840EA09003F
:102CB000306003E0306820EA09003060BDE8F0874A
:102CC00070B504460D461646DF4884420BD0DF48F7
:102CD000844208D0DE48844205D0DE48844202D0D7
:102CE000DD48844200D105E040F2C311AFF200108C
:102CF00001F07EFA4FF63F70284008B905B105E0B3
:102D00004FF4E271AFF2181001F072FA0EB1012E19
:102D100000D105E040F2C511AFF22C1001F068FAC5
:102D20001EB1A08A2843A08202E0A08AA843A08204
:102D300070BD70B504460D46C34884420BD0C348ED
:102D4000844208D0C248844205D0C248844202D09E
:102D5000C148844200D105E040F2DF11AFF27010AB
:102D600001F046FA0F2D00DC05E04FF4F071AFF2F0
:102D7000801001F03DFA208A4FF6F0710840208261
:102D8000208A2843208270BD70B504460D46AE48A7
:102D900084420BD0AD48844208D0AD48844205D06F
:102DA000AC48844202D0AC48844200D105E04FF4E4
:102DB000FB71AFF2C41001F01BFA15B1B5F5006F4D
:102DC00000D105E040F2F711AFF2DC1001F010FA8B
:102DD000A0894FF2FF710840A081A0892843A081FB
:102DE00070BD70B504460D46974884420BD0974895
:102DF000844208D09648844205D09648844202D046
:102E00009548844200D105E040F20921AFF220202C
:102E100001F0EEF90DB1012D00D105E040F20A21DB
:102E2000AFF2342001F0E4F925B1A08940F00200AE
:102E3000A08104E0A0894FF6FD710840A08170BD1B
:102E400070B504460D46804884420BD07F488442CA
:102E500008D07F48844205D07E48844202D07E4814
:102E6000844200D105E040F22621AFF27C2001F03F
:102E7000BFF90DB1202D00D105E040F22721AFF2BE
:102E8000902001F0B5F9208A4FF6DF7108402082CA
:102E9000208A2843208270BD70B504460D466A48DA
:102EA00084420BD06948844208D06948844205D0E6
:102EB0006848844202D06848844200D105E040F26C
:102EC0003921AFF2D42001F093F90DB1012D00D1D9
:102ED00005E040F23A21AFF2E82001F089F925B18E
:102EE000208A40F48040208204E0208A4BF6FF7163
:102EF0000840208270BD70B504460D465248844299
:102F00000BD05248844208D05148844205D05148E1
:102F1000844202D05048844200D105E040F253215F
:102F2000AFF2343001F064F9B5F5007F00DA05E066
:102F30004FF41571AFF2483001F05AF9C5F30800AB
:102F4000A08070BD10B504463F4884420BD03F4876
:102F5000844208D03E48844205D03E48844202D094
:102F60003D48844200D105E04FF41971AFF2803042
:102F700001F03EF9A088C0F3080010BD10B504466A
:102F8000314884420BD03148844208D030488442D2
:102F900005D03048844202D02F48844200D105E059
:102FA0004FF41D71AFF2B83001F022F9A08940F062
:102FB0000100A08110BD70B504460D462248844230
:102FC00005D02248844202D02148844200D105E045
:102FD0004FF42171AFF2E83001F00AF9208BC0B252
:102FE0002083208B40EA0520208370BD70B5044605
:102FF0000D46154884420BD01448844208D014482A
:10300000844205D01348844202D01348844200D140
:1030100005E04FF42671AFF2284001F0E9F8208B6B
:1030200000F47F402083208B2843208370BD70B53F
:1030300004460D460448844205D00448844202D028
:10304000034884420AD10FE00038014000440040A8
:1030500000480040004C00400050004040F2AB21CE
:10306000AFF2744001F0C4F80DB1012D00D105E0BC
:103070004FF42B71AFF2884001F0BAF825B1A08A65
:1030800040F02000A08204E0A08A4FF6DF710840E3
:10309000A08270BD70B504460D46F948844205D043
:1030A000F848844202D0F848844200D105E04FF449
:1030B0003171AFF2C44001F09BF80DB1012D00D188
:1030C00005E040F2C521AFF2D84001F091F825B1FA
:1030D000A08A40F01000A08204E0A08A4FF6EF71B1
:1030E0000840A08270BD70B504460D46E448844295
:1030F0000BD0E448844208D0E348844205D0E3483A
:10310000844202D0E248844200D105E040F2DE2150
:10311000AFF2245001F06CF80DB1012D00D105E0A3
:1031200040F2DF21AFF2385001F062F825B1A08AF9
:1031300040F00800A08204E0A08A4FF6F771084032
:10314000A08270BD70B504460D46CD4884420BD0B8
:10315000CC48844208D0CC48844205D0CB48844235
:1031600002D0CB48844200D105E040F2FD21AFF20D
:10317000805001F03DF80DB1012D00D105E040F285
:10318000FE21AFF2945001F033F825B1A08940F44C
:103190000040A08103E0A089C0F30E00A08170BDB3
:1031A00070B504460D46B64884420BD0B5488442FB
:1031B00008D0B548844205D0B448844202D0B4480F
:1031C000844200D105E04FF44671AFF2DC5001F0CB
:1031D0000FF80DB1012D00D105E040F21931AFF229
:1031E000F05001F005F825B1A08A40F40060A082FB
:1031F00004E0A08A4FF2FF710840A08270BD70B554
:1032000004460D469E4884420BD09E48844208D016
:103210009D48844205D09D48844202D09C48844207
:1032200000D105E040F23531AFF23C6000F0E0FF44
:10323000042D00D005B905E040F23631AFF2506000
:1032400000F0D6FFA08A4FF6FB710840A082A08A4A
:103250002843A08270BD70B504460D46884884425C
:103260000BD08848844208D08748844205D08748DC
:10327000844202D08648844200D105E04FF4527166
:10328000AFF2946000F0B4FF0DB1012D00D105E064
:1032900040F24931AFF2A86000F0AAFF25B1A08A40
:1032A00040F00200A08204E0A08A4FF6FD710840C1
:1032B000A08270BD70B505460C4600267048854258
:1032C0000BD07048854208D06F48854205D06F48C2
:1032D000854202D06E48854200D105E040F26E3151
:1032E000AFF2F46000F084FF012C13D0802C11D0D9
:1032F000402C0FD0202C0DD0102C0BD0B4F5807F9B
:1033000008D0B4F5007F05D0082C03D0042C01D0E0
:10331000022C00D105E040F26F31AFF22C7000F0CA
:1033200067FFB4F5007F0FD15548854205D0554859
:10333000854202D05448854200D105E040F2733105
:10334000AFF2547000F054FF2888204008B10126E5
:1033500000E00026304670BD70B504460D46484872
:1033600084420BD04748844208D04748844205D065
:103370004648844202D04648844200D105E040F2EB
:103380009E31AFF2947000F033FF4FF69F4028401B
:1033900008B905B105E040F29F31AFF2AC7000F022
:1033A00027FF05F40070B0F5007F0FD13448844248
:1033B00005D03448844202D03348844200D105E02D
:1033C00040F2A331AFF2D87000F012FFE843208042
:1033D00070BD2DE9F04705460C4600270026B04693
:1033E000B146274885420BD02648854208D026485A
:1033F000854205D02548854202D02548854200D126
:1034000005E040F2C131AFF6180000F0F1FE282CC3
:1034100020D040F2277084421CD040F226608442C3
:1034200018D040F22550844214D040F22440844207
:1034300010D040F6460084420CD040F66A10844218
:1034400008D0B4F5587F05D0B4F5187F02D0B4F594
:10345000B07F00D105E040F2C231AFF66C0000F061
:10346000C7FE40F66A1084421AD10548854205D04D
:103470000448854202D0044885420BD110E0000088
:10348000003801400044004000480040004C00402B
:103490000050004040F2C631AFF6AC0000F0A8FE8C
:1034A000C4F3421804F01F06012000FA06F6B8F132
:1034B000010F02D1A889064007E0B8F1020F02D13E
:1034C000288A064001E0A88A06402712012000FA57
:1034D00007F7288807401EB117B14FF0010901E036
:1034E0004FF000094846BDE8F0872DE9F041044659
:1034F0000D4600260027244884420BD023488442EE
:1035000008D02348844205D02248844202D0224871
:10351000844200D105E040F20A41AFF62C1000F0E1
:1035200067FE40F2266085420BD040F2255085426E
:1035300007D040F64600854203D040F66A10854227
:1035400000D105E040F20B41AFF65C1000F050FEF8
:1035500040F66A1085420FD10B48844205D00B48D3
:10356000844202D00A48844200D105E040F20F4173
:10357000AFF6841000F03CFE2E120120B04087B25E
:10358000F8432080BDE8F08100380140004400404D
:1035900000480040004C00400050004010B5044678
:1035A000F74884422AD0F6481430844226D0F448A2
:1035B0002830844222D0F2483C3084421ED0F04869
:1035C000503084421AD0EE486430844216D0EC4821
:1035D0007830844212D0EB4884420FD0E94814304E
:1035E00084420BD0E7482830844207D0E5483C307D
:1035F000844203D0E3485030844200D103E06F217D
:10360000E1A000F0F5FD20684FF6FE710840206053
:10361000002020606060A060E060D948844208D14A
:10362000D7480838406840F00F00D549083948604D
:103630008AE0D3481430844208D1D1480838406821
:1036400040F0F000CE49083948607DE0CC48283091
:10365000844208D1CA480838406840F47060C849BC
:103660000839486070E0C6483C30844208D1C448FC
:103670000838406840F47040C1490839486063E048
:10368000BF485030844208D1BD480838406840F4F3
:103690007020BB490839486056E0B948643084421C
:1036A00008D1B7480838406840F47000B449083978
:1036B000486049E0B2487830844208D1B0480838C0
:1036C000406840F07060AE49083948603CE0AD4861
:1036D000844206D1001F006840F00F00211F0860DF
:1036E00032E0A8481430844208D1A648001F006880
:1036F00040F0F000A349091F086025E0A1482830E8
:10370000844208D19F48001F006840F470609D49C2
:10371000091F086018E09B483C30844208D1994852
:10372000001F006840F470409649091F08600BE0D4
:1037300094485030844207D19248001F006840F4FA
:1037400070209049091F086010BD70B505460C46F1
:1037500000268B4885422AD089481430854226D0DD
:1037600087482830854222D085483C3085421ED08B
:103770008348503085421AD081486430854216D043
:103780007F487830854212D07E4885420FD07D48F0
:10379000143085420BD07B482830854207D07948C9
:1037A0003C30854203D077485030854200D103E059
:1037B000CF2175A000F01CFDA068102801D0A068E2
:1037C00000B903E0D02170A000F012FDE06820B144
:1037D000E068B0F5803F00D203E0D1216AA000F09C
:1037E00007FD2069402801D0206900B903E0D221FB
:1037F00065A000F0FDFC6069802801D0606900B917
:1038000003E0D32160A000F0F3FCA06938B1A06907
:10381000B0F5807F03D0A069B0F5007F00D103E050
:10382000D42159A000F0E4FCE06938B1E069B0F5BA
:10383000806F03D0E069B0F5006F00D103E0D521BF
:1038400051A000F0D5FC206A202801D0206A00B9E0
:1038500003E0D6214CA000F0CBFC606AB0F5405FDD
:1038600009D0606AB0F5005F05D0606AB0F5805F8E
:1038700001D0606A00B903E0D72143A000F0B8FC92
:10388000A06AB0F5804F01D0A06A00B903E0D8214A
:103890003DA000F0ADFC2E6847F6F0708643216A2B
:1038A000A06808432169084361690843A169084386
:1038B000E1690843616A0843A16A084306432E6030
:1038C000E06868602068A8606068E86070BD0021FA
:1038D000016041608160C160016141618161C161DC
:1038E000016241628162704770B504460D4624480A
:1038F00084422AD022481430844226D020482830DE
:10390000844222D01E483C3084421ED01C48503095
:1039100084421AD01A486430844216D0184878304D
:10392000844212D0174884420FD016481430844283
:103930000BD014482830844207D012483C308442CF
:1039400003D010485030844200D104E040F22911E5
:103950000DA000F04DFC0DB1012D00D104E04FF49D
:10396000957109A000F044FC25B1206840F00100E9
:10397000206004E020684FF6FE710840206070BDB2
:1039800008000240080402404C6962726172696575
:10399000735C53544D3332463130785F5374645006
:1039A00065726970685F4472697665725C73726390
:1039B0005C73746D3332663130785F646D612E6391
:1039C0000000000070B504460D461646FE488442CD
:1039D0002AD0FD481430844226D0FB482830844247
:1039E00022D0F9483C3084421ED0F74850308442FF
:1039F0001AD0F5486430844216D0F34878308442B7
:103A000012D0F24884420FD0F048143084420BD0D8
:103A1000EE482830844207D0EC483C30844203D042
:103A2000EA485030844200D105E040F24911AFF23B
:103A3000A80000F0DDFB25F00E0008B905B105E097
:103A40004FF4A571AFF2C00000F0D2FB0EB1012E11
:103A500000D105E040F24B11AFF2D40000F0C8FBFA
:103A60001EB120682843206002E02068A84320603F
:103A700070BD70B504460D46D34884422AD0D24862
:103A80001430844226D0D0482830844222D0CE48F8
:103A90003C3084421ED0CC48503084421AD0CA48B0
:103AA0006430844216D0C8487830844212D0C74867
:103AB00084420FD0C548143084420BD0C34828300C
:103AC000844207D0C1483C30844203D0BF485030C4
:103AD000844200D105E04FF4B271AFF2541000F00F
:103AE00087FB656070BD10B50446B74884422AD094
:103AF000B5481430844226D0B3482830844222D0BE
:103B0000B1483C3084421ED0AF48503084421AD075
:103B1000AD486430844216D0AB487830844212D02D
:103B2000AA4884420FD0A948143084420BD0A74839
:103B30002830844207D0A5483C30844203D0A348B3
:103B40005030844200D105E04FF4BB71AFF2C81091
:103B500000F04EFB606880B210BD70B504460025D1
:103B60000026012C7ED0022C7CD0042C7AD0082C8C
:103B700078D0102C76D0202C74D0402C72D0802C91
:103B80007FD0B4F5807F7CD0B4F5007F79D0B4F5D8
:103B9000806F76D0B4F5006F73D0B4F5805F70D0CD
:103BA000B4F5005F6DD0B4F5804F6AD0B4F5004F26
:103BB00067D0B4F5803F64D0B4F5003F61D0B4F570
:103BC000802F5ED0B4F5002F5BD0B4F5801F58D0A5
:103BD000B4F5001F55D0B4F5800F52D0B4F5000FE6
:103BE0004FD0B4F1807F4CD0B4F1007F49D0B4F114
:103BF000806F46D0B4F1006F43D07548844240D006
:103C0000401C84423DD0801C84423AD0001D844236
:103C100037D06F480F30844233D06D481F30844214
:103C20002FD06B483F3084422BD069487F3084428C
:103C300027D06748FF30844223D06648844220D092
:103C4000654884421DD0654884421AD0B4F1102FD3
:103C500017D04FEAF030844213D06148844210D02C
:103C6000604800E00DE084420BD05F48844208D0F9
:103C70005E48844205D05E48844202D05D4884425A
:103C800000D105E040F2B711AFF2043000F0B0FA15
:103C900004F0805018B14D480838066802E04A48E0
:103CA0000838066806EA040008B1012500E000258E
:103CB000284670BD10B5044604F0704010B14E485F
:103CC000204008B904B105E040F20E21AFF24830BF
:103CD00000F08EFA04F0805018B13C48001F0460D8
:103CE00002E039480838446010BD70B5044600252C
:103CF0000026012C66D0022C64D0042C62D0082C43
:103D000060D0102C5ED0202C5CD0402C5AD0802C5F
:103D100058D0B4F5807F55D0B4F5007F52D0B4F5BB
:103D2000806F4FD0B4F5006F4CD0B4F5805F49D0B0
:103D3000B4F5005F46D0B4F5804F43D0B4F5004FE2
:103D400040D0B4F5803F7FD0B4F5003F7CD0B4F5CF
:103D5000802F79D0B4F5002F76D0B4F5801F73D0C2
:103D6000B4F5001F70D0B4F5800F6DD0B4F5000F1E
:103D70006AD0B4F1807F67D0B4F1007F64D0B4F131
:103D8000806F61D0B4F1006F5ED0114884425BD087
:103D9000401C844258D0801C844255D0001D84426F
:103DA00052D00B480F3084424ED009481F30844215
:103DB0004AD007483F30844246D005487F3084428D
:103DC00042D01BE040E0000008000240080402402E
:103DD0000100001000020010000400100008001094
:103DE00000400010008000100000011000000210D0
:103DF00000000410000008100000F0EF2B48FF3016
:103E0000844221D02A4884421ED02A4884421BD0B2
:103E10002948844218D0B4F1102F15D04FEAF03061
:103E2000844211D0254884420ED0254884420BD0CC
:103E30002448844208D02448844205D02348844240
:103E400002D02348844200D105E040F25921AFF26C
:103E5000C84000F0CDF904F0805010B11D4806684C
:103E600001E01D48066806EA040008B1012500E0EB
:103E70000025284670BD10B5044604F0704010B10E
:103E80001648204008B904B105E040F2AF21AFF276
:103E9000085000F0ADF904F0805018B10D48001D35
:103EA000046001E00C48446010BD000001000010F7
:103EB0000002001000040010000800100040001074
:103EC000008000100000011000000210000004102B
:103ED0000000081000040240000002400000F0EF63
:103EE00010B50446B4F5E06F0BD0B4F5C06F08D040
:103EF000B4F5A06F05D0B4F5806F02D0B4F5407F63
:103F000000D103E063215DA000F072F9674820430F
:103F10006749086010BD2DE9F041044600250027DF
:103F20000F26E07810B1E078012800D103E0752178
:103F300052A000F05DF96078102800DA03E07621E5
:103F40004EA000F055F9A078102800DA03E07721A0
:103F50004AA000F04DF9E07800B35548006800F43D
:103F6000E060C0F5E060050AC5F10407EE40607846
:103F700000FA07F5A078304005432D014D4822781E
:103F80008554207800F01F010120884021784911D4
:103F9000890001F1E021C1F8000109E0207800F07A
:103FA0001F010120884044492278521141F8220023
:103FB000BDE8F08170B504460D46B4F1005F02D053
:103FC000B4F1006F00D103E09F212CA000F010F9A4
:103FD0003A48854200D203E0A02128A000F008F969
:103FE000374905EA010020433149091F086070BDC7
:103FF00070B504460D46102C03D0042C01D0022CC1
:1040000000D103E0B2211DA000F0F2F80DB1012DA6
:1040100000D103E0B32119A000F0EAF83DB1244833
:10402000001D006820432249091D086006E0204861
:10403000001D0068A0431E49091D086070BD10B531
:104040000446042C01D0601D00B903E0CA210BA076
:1040500000F0CEF8042C08D14FF0E020006940F0C9
:1040600004004FF0E021086107E04FF0E020006914
:1040700020F004004FF0E021086110BD4C6962722D
:1040800061726965735C53544D3332463130785FE9
:104090005374645065726970685F447269766572C2
:1040A0005C7372635C6D6973632E63000000FA05D4
:1040B0000CED00E000E400E080E100E0FFFF0F0015
:1040C00080FFFF1F0948804709480047FEE7FEE7D9
:1040D000FEE7FEE7FEE7FEE7FEE7FEE7FEE7FEE7B8
:1040E00004480549054A064B70470000A50300082F
:1040F0005101000838570020385D00203859002051
:104100003859002010B5044604F02AF91CF0C8F80C
:1041100011F015FA2BA009F068F901F05EF810BD56
:1041200008B501213C20FCF74CFE4FF4FE50ADF8E1
:10413000000003208DF8020010208DF8030069466E
:104140002648FDF785FE48F28000ADF80000032008
:104150008DF8020010208DF8030069462048FDF715
:1041600077FE80211E48FEF750F84FF48040ADF8EE
:10417000000003208DF8020004208DF8030069463A
:104180001748FDF765FE08BD1CB5FFF7C9FF002005
:1041900003E0002213490A54401C0828F9DB1420CC
:1041A00006214FF400630022CDE90010AFF2AB010D
:1041B0000DA00BF030F8044614B120460AF0C4FFFD
:1041C00000201CBD5443502F495020696E6974690A
:1041D000616C697A6564210A0000000000100140EA
:1041E000000C0140C71C0020696E697400000000CB
:1041F00004460D46A5A009F0F8F82146ADA009F047
:10420000F4F82946B0A009F0F0F800BFFEE710B5B9
:104210008CB00024B148B249086003F015FBAF48E8
:1042200012380068002838D0AC48123800680128DD
:1042300033D0AA4812380268AAA1B0481EF0D8FEAE
:104240000120A64912390860C0200871A8204871D1
:10425000012088710A20C871C0200872A820487205
:1042600001208872C872FF20087348738873002089
:10427000C8734FF4FA6008824FF4E130C1F89B0034
:10428000002003E0002295490A54401C0828F9DB6D
:104290009BA1924808301FF0A5F890481238007B87
:1042A000FF2821D18D481238407BFF281CD18B4834
:1042B0001238C07BFF2817D088481238008A98B17E
:1042C00086481238008A4FF6FF7188420CD0834925
:1042D0001239D1F89B0003F027FB28B17F48123830
:1042E00090F89F00FF285CD17C481238008A7B49F7
:1042F0001239C97B794A123A927B784B123B5B7B2D
:10430000CDE90732CDE9091074481238007B7349B2
:104310001239C97A714A123A927A704B123B5B7A1F
:10432000CDE90332CDE905106C481238007A6B49AB
:104330001239C979694A123A9279CDE9002102907D
:1043400066481238437902796F4970481EF050FE72
:10435000C020624912390871A82048710120887173
:104360000A20C871C0200872A820487201208872F3
:10437000C872FF200873487388730020C87360A157
:10438000564808301FF02EF84FF4FA60534912399E
:1043900008824FF4E130C1F89B00012081F89F00B2
:1043A00001244E481238018AC27B807B4B4B123B62
:1043B0005B7BCDE90730CDE9092148481238007B05
:1043C00046491239C97A454A123A927A434B123B0E
:1043D0005B7ACDE90332CDE9051040481238007A06
:1043E0003E491239C9793D4A123A9279CDE9002104
:1043F00002903A48123843790279454945481EF0FF
:10440000F7FD0CB103F00BFA0CB010BD08B501219B
:104410000420FCF7D6FC4FF48050ADF800000320D8
:104420008DF8020010208DF8030069463A48FDF728
:104430000FFD4FF480513848FDF712FF03F04EFA9C
:1044400041F6583003F014FAFFF7E1FE03F04FFF96
:1044500008F0CCFF06F0D2FD0AF037FA0BF019FB9A
:104460002E492F4809F0BDFB0AF0E7FBFFF78CFE51
:104470000BF01BFB07F075F80AF0FBFB08BD10B54D
:104480000BF078FCFFF7C2FF002010BD0A0D20578B
:10449000726F6E6720706172616D657465722076EF
:1044A000616C7565206465746563746564206F6E06
:1044B0000D0A00002020202020202066696C652045
:1044C0002025730D0A000000202020202020206CD1
:1044D000696E65202025640D0A000000C71C0020BD
:1044E0006C04002072657365742073692E646863C0
:1044F000703D307825780D0A00000000400800204B
:104500004446526F626F740068670208C00800205A
:10451000C8670208C009002000080140000001200F
:10452000385D0020002200EB8003590000BF531CBF
:104530001A468B4200D97047F9E710B500240DE008
:10454000FE480068005D20B12146492001F086FE4A
:1045500003E02146492001F09BFE641C082CEFDBA0
:104560000021F7A007F085FAF849086008460068BE
:1045700008B9012010BD0021F5A007F07AFAF94929
:1045800008600846006808B90120F3E7F649F748D3
:1045900006F004FF0020EDE770B504460D46F34831
:1045A0002B4622460021466BB04770BD70B50446CD
:1045B0000D462A46214681201EF06CFA70BD70B56A
:1045C00004460D4600232A462146E94800680FF0BC
:1045D0002CFD70BD2DE9F04706460F461446E54D0B
:1045E0004FF0FF3A05F10508681D00EB040900BF14
:1045F00055202870AA206870DF4890F89F00A870A6
:10460000EC70FF202871F92C04DA22463946404626
:104610001EF076FFA11DD74803F096F989F8000037
:10462000542E05D121463846FFF7C9FF82460EE0D9
:10463000552E05D1A11DCF48FFF7B8FF824606E0F1
:10464000432E04D1A11DCB48FFF7A6FF824650465A
:10465000BDE8F0872DE9F041ACB004460025002705
:104660002078542805D02078552802D02078432877
:104670001BD1267860784F2801D1012703E06078AC
:10468000432800D10027A078A0F13105002D06DBDA
:10469000082D04DA27B12946304601F0DFFD16E186
:1046A0002946304601F0F4FD11E1207847287CD1FD
:1046B0000322B2A120461EF069FE30B9AE4A1A327A
:1046C000AFA10CA81EF094FCEEE00322B0A120469E
:1046D0001EF05CFE28B9AFA2B0A10CA81EF088FCA9
:1046E000E2E00322B2A120461EF050FE002844D191
:1046F00092480068C07908B1AEA000E0AEA08F4932
:104700000968897909B1ABA100E0ABA18B4A1268B5
:1047100052790AB1A7A200E0A7A2884B1B681B79B7
:104720000BB1A4A300E0A4A3CDE90232CDE90410AB
:1047300082480068C07808B19EA000E09EA07F4932
:104740000968897809B19BA100E09BA1CDE900101F
:104750007A480068407808B196A000E096A0034629
:1047600076480068007808B192A000E092A0024666
:1047700092490CA81EF03CFC96E0032290A1204632
:104780001EF004FE002862D17B480068D0B37A484E
:10479000018A8C480068000E8A4A1268C2F30742F8
:1047A000884B1B88C3F3072300E088E0CDE907327C
:1047B000CDE909018348017883480068000E824AE8
:1047C0001268C2F30742804B1B88C3F30723CDE96D
:1047D0000332CDE905017C4801787C480068000E71
:1047E0007A4A1268C2F30742CDE900200291774865
:1047F0000088C0F307237548027875490CA81EF09D
:10480000F7FB51E0FFE75C48018AC27B807B5A4B93
:104810005B7BCDE90730CDE909215748017BC27A9E
:10482000807A554B5B7ACDE90330CDE905215248BA
:10483000017AC079504A9279CDE9002002914E4820
:104840004379027962490CA81EF0D2FB2CE00322C6
:1048500060A120461EF09AFD38B94748D0F89B2049
:104860005DA10CA81EF0C4FB1EE003225FA1204640
:104870001EF08CFD38B9404890F89F205CA10CA830
:104880001EF0B6FB10E003225EA120461EF07EFD66
:1048900050B93948006808B146A000E046A0024679
:1048A00059A10CA81EF0A4FB0CA81EF0BFFD00F13E
:1048B000010842460CA95420FFF78CFE07E00322B2
:1048C00055A120461EF062FD08B900F035FD2CB060
:1048D000BDE8F0811CB500204FF480610C234F4AE5
:1048E000CDE900104EA14F4808F06FF81CBDCCB0C8
:1048F00000250026FFF7EEFFFFF71FFEF5E14FF45E
:10490000807200210CA808F04CFC02E001200AF0A3
:10491000D3FD00234FF480720CA9424808F07EFAC0
:104920000028F3D19DF8300054287FD09DF8300046
:1049300055287BD09DF83000432876E06C04002099
:104940007469636B4D757465780000003800002051
:104950006A736F6E526573706F6E73654D757465B3
:10496000780000003C000020376100083C43002034
:10497000340000206C0F0020B51C002047524E0070
:104980007B226E616D65223A222573227D00000034
:104990004752560056312E30550000007B22766576
:1049A0007273696F6E223A222573227D0000000027
:1049B000475253006F6E00006F6666007868020809
:1049C000474E4300C4040020C8040020C004002057
:1049D00020680208474252007B226261756472615E
:1049E0007465223A222564227D000000473441008C
:1049F0007B2234383561646472223A222564227D38
:104A000000000000474448007B2264686370223A3B
:104A1000222573227D00000052454200F40A002046
:104A20006D717400C00A002000E01BD19DF8304079
:104A30009DF831004F2801D1012604E09DF8310096
:104A4000432800D100269DF83200A0F1310526B19F
:104A50002946204601F002FC47E12946204601F0A4
:104A600017FC42E19DF83000472871D10322AFF2D4
:104A7000F4010CA81EF08AFC30B9FB4AAFF2001119
:104A80000CA81EF0B5FA1DE10322AFF2FC010CA840
:104A90001EF07CFC38B9AFF20412AFF200110CA882
:104AA0001EF0A6FA0EE10322AFF2FC010CA81EF0E4
:104AB0006DFC002855D1ED480068C07910B1AFF207
:104AC0000C1001E0AFF21010E8490968897911B1C2
:104AD000AFF2201101E0AFF22011E44A12685279DE
:104AE00012B1AFF2301201E0AFF23412DF4B1B68AB
:104AF0001B7913B1AFF2441301E0AFF24413CDE9D7
:104B00000232CDE90410D9480068C07810B1AFF284
:104B10005C1001E0AFF26010D4490968897811B1E6
:104B2000AFF2701101E0AFF27011CDE90010CF4883
:104B30000068407810B1AFF2841001E0AFF2881045
:104B40000346CA480068007818B1AFF2981002E036
:104B5000C2E0AFF29C100246C5490CA81EF048FA0C
:104B6000B0E00322AFF2A8110CA81EF00FFC002841
:104B700070D1BD481A380068C8B3BB481A38018ADA
:104B8000BC480068000EBB4A1268C2F30742B94B2A
:104B90001B88C3F30723CDE90732CDE90901B548E6
:104BA0000178B5480068000EB34A1268C2F30742A4
:104BB000B14B1B88C3F30723CDE90332CDE90501CF
:104BC000AD480178AD480068000EAC4A1268C2F3E7
:104BD0000742CDE900200291A8480088C0F30723CE
:104BE000A6480278A6490CA81EF002FA6AE0FFE780
:104BF0009D481A38008A9C491A39CA7B897B9A4B8E
:104C00001A3B5B7BCDE90731CDE9092096481A387C
:104C1000017BC07A944A1A3A927A934B1A3B5B7A98
:104C2000CDE90332CDE905018F481A38007A8E4963
:104C30001A39C9798C4A1A3A9279CDE90021029041
:104C400089481A38437902798D490CA81EF0D0F9A9
:104C500038E0FFE70322AFF284210CA81EF096FB98
:104C600048B981481A38D0F89B20AFF294210CA89B
:104C70001EF0BEF926E00322AFF290210CA81EF030
:104C800085FB48B978481A3890F89F20AFF2A021E8
:104C90000CA81EF0ADF915E00322AFF298210CA884
:104CA0001EF074FB70B970481A38006810B1AFF28A
:104CB000FC2001E0AFF200300246AFF2B4210CA8B4
:104CC0001EF096F90CA81EF0B1FB471C3A460CA941
:104CD0005420FFF77FFC08E00322AFF2C4210CA8A8
:104CE0001EF054FB08B900F027FB08E68CB05E48C4
:104CF0001A38006838B102E064200AF0DDFB5F4832
:104D000000680028F8D00FE00022022108460FF0CA
:104D1000DAF90446401C18B95AA008F066FB00E016
:104D200003E064200AF0C8FBEEE700BF4E481A38E3
:104D3000006890B14C481A38807A5049096800EAF6
:104D4000114000904D480088C0F307234B4802787B
:104D500050A103A81EF04CF90FE043481A3880799F
:104D600041491A39897A084000903F481A384379F6
:104D7000027948A103A81EF03BF902208DF821001A
:104D800041F2767010F0C4FFADF8220003A81AF0CB
:104D900005F90990082200210AA808F002FA1BE090
:104DA00031481A38008AAFF214432F4A3DA10090CF
:104DB0004C481EF01DF94B481EF038FB05461020EC
:104DC00008A900232A46CDE90010464920460FF0E5
:104DD000A0F864200AF070FBE2E78AB03FE100220D
:104DE000012102200FF06FF90646401C30B925A0C2
:104DF00008F0FBFA0A200AF05FFB30E102208DF890
:104E0000150019481A38008A00280EDD16481A388D
:104E1000008A4FF6FF71884207DA13491A39088A67
:104E200010F076FFADF8160005E04FF4FA6010F0D0
:104E30006FFFADF81600002006900822114607A863
:104E400008F0AFF9102205A930460EF06EFD401CA7
:104E500048B925A008F0C9FA30460EF0C4FD0A2072
:104E60000AF02AFBFBE047E0CF1C00206C04002086
:104E700078680208C4040020C8040020C004002090
:104E800020680208536F636B6574206572726F72DD
:104E90000A00000025642E25642E25642E32353547
:104EA000000000007B2244657369676E223A224449
:104EB00046526F626F74222C226E616D65223A2217
:104EC0002573222C2276657273696F6E223A222531
:104ED00073222C22746370506F7274223A25647DA1
:104EE00000000000F40E0020556E61626C652074B5
:104EF0006F2062696E640A00012130460EF00AFEDE
:104F0000401C48B9E0A008F070FA30460EF06BFD86
:104F10000A200AF0D1FAA2E01020099009AA01A9FA
:104F200030460EF0B9FBDC490860084600680028EE
:104F300006DC30460EF057FD0A200AF0BDFA8EE07E
:104F4000BDF8060010F0EAFE074602A81AF086F83F
:104F500080463A464146D1A008F047FA7CE000235B
:104F60004FF48062D649CC4800680EF0C1FF044679
:104F7000002C0ADCD3A008F038FAC74800680EF00D
:104F800032FD30460EF02FFD67E0D248008868B150
:104F900010F089FE0746D0480068381A642804D308
:104FA0000020CE490870CB49088000BFC94800885E
:104FB000B0B9C3480078552807D1C1484078AA281D
:104FC00003D10020C649087006E0BD4800787B2860
:104FD00002D10120C249087010F065FEBE49086088
:104FE000BC4800882044B0F5806F05DB0020B9493B
:104FF0000880BA4908700CE0B849B64A1288881887
:105000002246AF491EF07CFAB24800882044B149DC
:105010000880B0480288B149B148007800F092FF9A
:1050200005466DB9AB480388AC4A5421AC480078BA
:1050300000F06AFE0020A9490870A64908800AE02D
:10504000012D00D108E0022D05D10020A3490870F0
:10505000A049088000E000BF81E700BF00BFBEE6B6
:1050600008B501210420FBF7ACFE4FF48050ADF8E9
:10507000000003208DF8020010208DF8030069461F
:105080009848FCF7E5FE4FF480519648FDF7E8F8A4
:105090000A200AF011FA04208DF8030069469148AD
:1050A000FCF7D6FE1DF07FFD1DF095FD1DF0C3FC45
:1050B00010E064200AF000FA0121084604F008FA22
:1050C00000F0040018B988A008F08FF902E08CA065
:1050D00008F08BF9EDE70025012600274FF00208C4
:1050E0007AE080218B48FCF7EDFF07464FF48041C2
:1050F0008848FCF772FF0446012E04D11CB9002534
:105100004FF002080BE056B9012C08D180218148EC
:10511000FDF77BF8142D01DB00F00EF90025142DAE
:1051200001DB4FF0060886B97CB96D1C95FBF8F0E1
:1051300008FB105048B927B180217648FDF790F858
:1051400003E080217348FDF760F8C82D40D180212D
:105150007048FDF785F800BF4FF480416D48FCF7BB
:105160003CFF0028F8D04FF0FF306B490860C020AA
:105170000871A8204871012088710A20C871C020D8
:105180000872A820487201208872C872FF20087334
:10519000487388730020C8734FF4FA6008824FF494
:1051A000E130C1F89B00012081F89F005BA15A48C3
:1051B0001A301EF017F9002004E00022564912317F
:1051C0000A54401C0828F8DB02F029FB00F0B4F870
:1051D000264605200AF070F983E72DE9FC411420EA
:1051E00010210B020022CDE90010AFF6FD014DA009
:1051F0000AF011F88046B8F1000F02D0404609F0DD
:10520000A3FF142010210B020022CDE90010AFF201
:10521000354145A009F0FFFF044614B1204609F0CE
:1052200093FF14201021CB010022CDE90010AFF232
:10523000CF113EA009F0EFFF054615B1284609F051
:1052400083FF14201021CB010022CDE90010AFF222
:10525000791137A009F0DFFF064616B1304609F094
:1052600073FF14201021CB010022CDE90010AFF212
:10527000835130A009F0CFFF074617B1384609F037
:1052800063FFBDE8FC8100004C697374656E2065A6
:1052900072726F720A000000340000204920676FAC
:1052A00074206120636F6E6E656374696F6E206633
:1052B000726F6D20282573202C202564290D0A008B
:1052C0006C100020646973636F6E6E6563740D0A01
:1052D00000000000400400204404002040000020A2
:1052E000420400200008014065746820646973630B
:1052F0006F6E6E656374212121210D0A000000008C
:1053000065746820636F6E6E656374212121210DC1
:105310000A000000000C0140B51C00204446526FFA
:10532000626F740074300000743100007432000049
:10533000743300007434000045F25550FCF7D2F885
:105340000020FCF7DEF80020FCF7F2F8FCF7FDF88F
:10535000FCF700F900BFFEE72DE9F04F87B00E46DD
:105360001446FBA0006805900020049000278046AA
:1053700081468246834603900290052E6FD00A2E06
:105380000AD00B2E07D121681422F2481EF0B8F87B
:105390000020F049C874ADE20522EFA1ED481DF0F0
:1053A000F5FF00284DD10021ED48006806F043FCD0
:1053B0000120EC490870EA48006806F008FDE5485D
:1053C000407931280BDBE3484079382807DC54204A
:1053D0008DF81400DF4840798DF816000EE00021AA
:1053E000DF48006806F027FC0120DE490870DE492E
:1053F0000870DB48006806F0EAFC7BE22068DBA16D
:105400001EF01CF928B94F208DF8150001200490DA
:1054100065E22068D6A11EF011F928B943208DF865
:105420001500012004905AE20021CD48006806F0E2
:1054300002FC0120CC490870C948006806F0C7FC8E
:1054400058E20322CBA1C3481DF0A0FF002846D19B
:105450002068C9A11EF0F2F810B901273FE23FE22F
:105460002068C8A11EF0EAF810B94FF0010836E232
:105470002068C6A11EF0E2F810B94FF001092EE233
:105480002068C4A11EF0DAF810B94FF0010A26E234
:105490002068C3A11EF0D2F810B94FF0010B1EE234
:1054A0002068C2A11EF0CAF810B90120039016E2CC
:1054B0002068C0A11EF0C2F810B9012002900EE2CF
:1054C0000021A748006806F0B6FB0120A549087036
:1054D000A5490870A248006806F079FCFFE10422A3
:1054E000A8A19C481DF052FFD8B921688022B3487A
:1054F0001EF006F80021B1481A3880F8991002F021
:105500008EF900219648006806F095FB0120954928
:1055100008700020944908709148006806F057FC14
:10552000DDE10622A6A18B481DF030FF00BB2068FC
:1055300019F034FD05460020A0491A3908600D71A4
:10554000280A4871280C8871280EC87102F067F982
:1055500000218348006806F06EFB01208149087035
:105560000020814908707E48006806F030FCB6E1F2
:10557000072295A177481DF009FF00BB206819F0AC
:105580000DFD054600208D491A3908600D72280A64
:105590004872280C8872280EC87202F040F9002167
:1055A0006F48006806F047FB01206E490870002034
:1055B0006D4908706A48006806F009FC8FE107220F
:1055C00083A164481DF0E2FE00BB206819F0E6FCF0
:1055D0000546002079491A3908600D73280A487376
:1055E000280C8873280EC87302F019F900215C4852
:1055F000006806F020FB01205A49087000205A4933
:1056000008705748006806F0E2FB68E1082264A1D0
:1056100050481DF0BBFE60BB20681DF08CFE0546A7
:10562000284602F081F9A8B164481A38C0F89B50A6
:1056300002F0F5F800214A48006806F0FCFA012063
:10564000484908700020484908704548006806F03D
:10565000BEFB0DE000214248006806F0ECFA012094
:1056600040490870404908703D48006806F0AFFBAB
:1056700035E107224DA137481DF088FE68BB206840
:105680001DF059FEC5B2CDB1AB2D17D0FF2D15D0F1
:105690004A481A3880F89F5002F0C1F8002130487B
:1056A000006806F0C8FA01202E49087000202E4933
:1056B00008702B48006806F08AFB0DE0002128489E
:1056C000006806F0B8FA01202649087026490870DB
:1056D0002348006806F07BFB01E104223EA11D483F
:1056E0001DF054FE98BB20681DF025FE05460021E4
:1056F0001B48006806F09FFA01201A4908701848F4
:10570000006806F064FB002D14DDB5F5803F11DA6A
:105710002A491A390D8202F082F8002110480068E7
:1057200006F089FA0020104908700D48006806F05C
:105730004EFB0BE000210A48006806F07CFA0120CD
:10574000094908700648006806F041FBC7E047E0D9
:10575000202020006C14002072656C61790000002C
:105760003C00002048040020490400206F6E000027
:105770006F6666006765740072656C617953746169
:10578000747573006E616D6500000000766572735C
:10579000696F6E006E6574636F6E66696700000006
:1057A00062617564726174650000000034383561AF
:1057B000646472006468637000000000CF1C002005
:1057C0006970616464720000676174657761790073
:1057D0006E65746D61736B00706F72740000000011
:1057E0000422AFF23001FE481DF0D0FDD8BB0020EE
:1057F00000900190206800680090AFF29001684628
:105800001DF01CFFA0B90120F649086002F007F85E
:105810000021F548006806F00EFA0120F3490870EF
:105820000020F3490870F048006806F0D0FA29E03B
:10583000AFF2C40168461DF001FFA8B90020E94994
:10584000086001F0ECFF0021E748006806F0F3F97A
:105850000120E64908700020E5490870E248006828
:1058600006F0B5FA0EE00EE00021DF48006806F011
:10587000E2F90120DD490870DD490870DA48006866
:1058800006F0A5FA2BE00622DAA1D5481DF07EFD30
:1058900008B9FFF751FD0522D8A1D1481DF076FDCA
:1058A00070B90021D048006806F0C5F90120CF4941
:1058B0000870CF490870CC48006806F088FA0EE0FE
:1058C0000021C948006806F0B6F90120C7490870F0
:1058D0000220C7490870C448006806F078FA09E059
:1058E000216860680A460346CDE90010C5A007F0AC
:1058F0007CFD00BF00BF7FB9B8F1000F0CD1B9F13A
:10590000000F09D1BAF1000F06D1BBF1000F03D18E
:10591000039808B90298B8B3052527B1BEA105A818
:105920001DF060FD2CE0B8F1000F04D0BBA105A86C
:105930001DF058FD24E0B9F1000F04D0B8A105A86E
:105940001DF050FD1CE0BAF1000F04D0B5A105A870
:105950001DF048FD14E0BBF1000F04D0B2A105A872
:105960001DF040FD0CE0039820B1B0A105A81DF08A
:1059700039FD05E0029818B1ADA105A81DF032FD72
:1059800005A8FEF767FE09E0FFE7AFF23C2105A896
:105990001DF054FE10B105A8FEF75CFE012007B013
:1059A000BDE8F08F2DE9F04105460C4616461F462E
:1059B0008C48006808B1012000E000209D49087073
:1059C00001222046FEF706FEBDE8F0812DE9F041F8
:1059D00007460D46144698462646707908B10120C0
:1059E00000E000207F49086001F019FF0122924980
:1059F0002846FEF7EFFDBDE8F0812DE9F84380462B
:105A00000D46144699460120009027467E79AB2E1C
:105A100006D0744880F89F6001F001FF00200090DC
:105A2000012269462846FEF7D5FDBDE8F8832DE939
:105A3000F84380460D4614469946012000902746BB
:105A4000D7F8050010F07DF90646304601F06CFFEE
:105A500030B16448C0F89B600020009001F0DFFE88
:105A6000012269462846FEF7B5FDBDE8F8832DE919
:105A7000F04106460C46174698460625062D00DDE1
:105A800000BF2A466DA16F481DF03AFD2A466D49B8
:105A90002046FEF79FFDBDE8F0812DE9F041064666
:105AA0000C46174698464F481A301DF0BFFC401C64
:105AB000C5B24C481A301DF0B9FC401CC0B20546B6
:105AC000202800DD20252A4646491A315E481DF06F
:105AD00017FD2A465C492046FEF77CFDBDE8F081B3
